:020000040800F2
:1000000000070020550100087D1700084916000868
:1000100000000000000000000000000000000000E0
:10002000000000000000000000000000831700082E
:10003000000000000000000081170008851700087C
:100040006701000800000000670100086701000860
:1000500067010008670100086701000867010008E0
:100060000000000067010008670100086701000840
:100070006701000867010008670100080000000030
:1000800067010008000000000000000035180008AB
:100090000000000067010008670100086701000810
:1000A0000000000067010008000000006701000870
:1000B00000F002F800F03EF80CA030C80838241810
:1000C0002D18A246671EAB4654465D46AC4201D190
:1000D00000F030F87E460F3E0FCCB6460126334284
:1000E00000D0FB1AA246AB4633431847301E00002F
:1000F000501E0000103A02D378C878C1FAD85207CF
:1001000001D330C830C101D504680C6070470000CD
:100110000023002400250026103A01D378C1FBD823
:10012000520700D330C100D50B6070471FB51FBD0B
:1001300010B510BD00F07BF91146FFF7F7FF01F095
:10014000ADFD00F093F903B4FFF7F2FF03BC00F03C
:1001500099F900000748804707480047FEE7FEE797
:10016000FEE7FEE7FEE7FEE704480549054A064BC1
:100170007047000031180008B1000008000100209D
:10018000000700200003002000030020FEB5054604
:1001900010460C46184373D0AE468C460020AD1A6C
:1001A00001469C4167D36646002701243D46B61AA6
:1001B0009D4102D313463A462124654676462F04D4
:1001C000360C3E432D0CB61A9D4104D3150C1B046E
:1001D0002B4312041034654676462F06360A3E43FA
:1001E0002D0AB61A9D4104D3150E1B022B43120291
:1001F0000834654676462F0736093E432D09B61A60
:100200009D4104D3150F1B012B431201241D65468C
:100210007646AF07B6083E43AD08B61A9D4104D3F3
:10022000950F9B002B439200A41C65467646EF0772
:1002300076083E436D08B61A9D411AD392185B4169
:10024000641C16E00018764665464941B71A9D4180
:100250000191009009D36046B11A98418E468446B8
:10026000009801990025401C6941DD0752082A4386
:100270005B08641EE6D57246634603B0F0BDFFE737
:1002800000200146C046C0462A462346F5E701E065
:1002900004C0091F0429FBD28B0701D50280801CF2
:1002A000C90700D00270704700290BD0C30702D0E5
:1002B0000270401C491E022904D3830702D5028024
:1002C000801C891EE3E70022EEE70022DFE7002220
:1002D00003098B422CD3030A8B4211D300239C4683
:1002E0004EE003460B433CD4002243088B4231D3FB
:1002F00003098B421CD3030A8B4201D394463FE08F
:10030000C3098B4201D3CB01C01A524183098B42EE
:1003100001D38B01C01A524143098B4201D34B01D7
:10032000C01A524103098B4201D30B01C01A52413A
:10033000C3088B4201D3CB00C01A524183088B42C1
:1003400001D38B00C01A524143088B4201D34B00AA
:10035000C01A5241411A00D201465241104670471C
:100360005DE0CA0F00D04942031000D34042534021
:1003700000229C4603098B422DD3030A8B4212D3E1
:10038000FC22890112BA030A8B420CD38901921113
:100390008B4208D3890192118B4204D389013AD050
:1003A000921100E08909C3098B4201D3CB01C01A25
:1003B000524183098B4201D38B01C01A5241430938
:1003C0008B4201D34B01C01A524103098B4201D326
:1003D0000B01C01A5241C3088B4201D3CB00C01A93
:1003E000524183088B4201D38B00C01A5241D9D2AB
:1003F00043088B4201D34B00C01A5241411A00D22C
:100400000146634652415B10104601D34042002B27
:1004100000D54942704763465B1000D3404201B5A6
:100420000020C046C04602BD704770477047754601
:1004300000F024F8AE46050069465346C008C000E7
:10044000854618B020B5FFF78FFE60BC002749082D
:10045000B6460026C0C5C0C5C0C5C0C5C0C5C0C55C
:10046000C0C5C0C5403D49008D46704710B5044623
:10047000C046C0462046FFF766FE10BD00487047E4
:10048000A000002001491820ABBEFEE726000200B4
:10049000704772B600BFFEE770B5044600F016F96B
:1004A00006462546681C002802D0054800782D180D
:1004B00000BF00F00BF9801BA842FAD370BD00000A
:1004C0005C00002078B503460022DDE0012696405E
:1004D0000C683440002C7DD04D68022D02D04D6850
:1004E000122D15D1D508AE001D462035A859550747
:1004F000EE0E0F25B5400646AE4330465607F60EC3
:100500000D69B5402843D508AD001E462036705110
:10051000186856000325B5400646AE4330460D79AF
:10052000AD07AD0F5600B540284318604D68012D4A
:1005300008D04D68022D05D04D68112D02D04D68B0
:10054000122D18D1986856000325B5400646AE43D3
:1005500030465600CD68B54028439860586801255C
:1005600095400646AE43304610264D6835402D096D
:10057000954028435860D86856000325B540064684
:10058000AE43304656008D68B5402843D8600126FA
:1005900036074D683540B54275D100BF3D4DAD6958
:1005A000012635433B4EB5613546AD69ED07ED0F8C
:1005B000009500BF00BF384D9608B600A8599507B2
:1005C0002E0F0F25B5400646AE4330460925ED06F1
:1005D000AB4200E057E001D100250FE02F4DAB42C8
:1005E00001D101250AE02E4DAB4201D1022505E0E3
:1005F0002C4DAB4201D1032500E005259607360FAF
:10060000B5402843244D9608B600A851264D2868C9
:100610000546A5432846012636044D683540B542B7
:1006200002D10546254328461F4D286068680546C7
:10063000A5432846012676044D683540B54202D1CF
:10064000054625432846184D6860A8680546A54319
:100650002846012636054D683540B54202D105468B
:1006600025432846104DA860E8680546A54328465E
:10067000012676054D683540B54202D10546254331
:100680002846094DE860521C0D68D540002D00D069
:100690001CE778BD0010024008000140000400483B
:1006A00000080048000C004800040140024613699D
:1006B0000B40002B01D0012000E000207047002AF1
:1006C00001D0816100E0816270470000014800684C
:1006D000704700005400002003480068034909786F
:1006E0004018014908607047540000205C00002059
:1006F00010B506480068102108430449086000202E
:1007000000F006F800F02EF8002010BD0020024096
:1007100070B50446104801787D20C000FFF7D7FD72
:10072000064631460D480068FFF7D1FD054600F04A
:10073000E1FC002801D0012070BD042C07D200226A
:100740002146501E00F040F80548046001E00120F9
:10075000F2E70020F0E700005C00002050000020DD
:100760005800002008B500BF0D48806901210843EA
:100770000B49886108468069C007C00F009000BF20
:1007800000BF00BF0846C069090408430449C861A6
:100790000846C06909040840009000BF00BF08BDBA
:1007A000001002400146002909DB00BF00BFCB0654
:1007B000DB0E01229A40034B1A6000BF00BF00BF4E
:1007C0007047000000E100E070B504460D46164693
:1007D0002946204601F0E0F970BD0000F8B5044656
:1007E00000260025012109042068084088427AD1AA
:1007F00000274B48C0690903084000280DD100BFFD
:100800004748C06908434649C8610846C0690904A9
:100810000840009000BF00BF012742480068FF2148
:1008200001310840002816D13E48006808433D4980
:100830000860FFF74BFF064606E0FFF747FF801B07
:10084000642801D90320F8BD36480068FF21013132
:1008500008400028F1D03248006A0321090208400C
:100860000546002D2DD060680840A84229D02C48AC
:10087000006A884305462A48006A012109040843A2
:10088000274908620846006A01210904884324496F
:10089000086208460562E807C00F002811D0FFF77C
:1008A00015FF064607E0FFF711FF801B1E4988422F
:1008B00001D90320C7E71A48006A0221084000282E
:1008C000F1D01748006A0321090288436168084390
:1008D00013490862012F05D10846C06909048843FD
:1008E0000F49C86100BF2078C007C00F002807D09B
:1008F0000B48006B80088000A16808430849086322
:10090000202120680840202807D10548006B1021CD
:100910008843E168084302490863002093E7000028
:1009200000100240007000408813000070B50446BB
:100930000D46002C01D1012070BD52480068C0074F
:10094000C00FA8420ED24F4800684008400028431C
:100950004C49086008460068C007C00FA84201D093
:100960000120E9E7022120680840022814D104216F
:1009700020680840042807D143484068072109023D
:1009800088434018404948603F484068F021884308
:10099000A16808433C4948602078C007C00F002880
:1009A0003BD06068012808D137480068012149041C
:1009B0000840002815D10120BEE76068022808D150
:1009C00031480068012149060840002809D101206A
:1009D000B2E72D48006802210840002801D101201B
:1009E000AAE72948406880088000616808432649D2
:1009F0004860FFF76BFE064607E0FFF767FE801BC7
:100A00002249884201D9032096E71F4840680C21FB
:100A10000840616889008842EFD11A480068C00721
:100A2000C00FA8420ED9174800684008400028436C
:100A30001449086008460068C007C00FA84201D0EA
:100A4000012079E7042120680840042808D10E48D5
:100A50004068072109028843E16808430A49486061
:100A600000F01AF808494968F02211400909084ABB
:100A7000515CC840074908600020FFF749FE00208C
:100A80005AE70000002002400010024088130000D6
:100A9000041F000850000020F0B589B027A00146CF
:100AA0000EC9C06805AC0EC4089028A001460EC946
:100AB000C06801AC0EC40490002400250027002665
:100AC00000200090254844680C20204000282DD0AC
:100AD000042802D0082828D102E02148009028E00C
:100AE0000F2080042040800C05A90E5C1B48C06AC2
:100AF0000007000F01A90D5C012000042040012126
:100B0000090488420AD12A46002315481946FFF7EE
:100B10003DFB314601F028F8074604E01148314614
:100B200001F022F80746009703E000BF0C48009050
:100B300000BF00BF009809B0F0BD0000020304052B
:100B4000060708090A0B0C0D0E0F10100102030412
:100B500005060708090A0B0C0D0E0F1000100240C5
:100B600000127A0000093D00FEB50446002C01D1B8
:100B70000120FEBD2078C007C00F002871D0FC48BE
:100B800040680C21084004280BD0F9484068084010
:100B9000082812D1F648406801210904084088421B
:100BA0000BD1F348006801214904084000286BD0AC
:100BB0006068002868D10120DBE700BF6068012879
:100BC00007D1EB480068012109040843E84908609F
:100BD00031E0606800280ED1E54800680121090471
:100BE0008843E34908600846006801218904884376
:100BF000DF4908601FE0606805280ED1DC48006806
:100C0000012189040843DA49086008460068012187
:100C100009040843D64908600DE0D5480068012161
:100C200009048843D2490860084600680121890404
:100C30008843CF49086000BF6068002812D0FFF7E2
:100C400045FD054606E0FFF741FD401B642801D93C
:100C500003208EE7C64800680121490408400028A7
:100C6000F1D011E0FFF732FD054606E0FFF72EFD5B
:100C7000401B642801D903207BE7BD48006801219F
:100C8000490408400028F1D10221206808400228C8
:100C900061D1B74840680C21084000280BD0B44807
:100CA0004068084008281BD1B14840680121090468
:100CB0000840002814D1AE480068022108400028EE
:100CC00004D0E068012801D0012052E7A84800685C
:100CD000F82188432169C9000843A54908603AE022
:100CE000E068002820D0A248006801210843A049FC
:100CF0000860FFF7EBFC054606E0FFF7E7FC401B4A
:100D0000022801D9032034E79948006802210840ED
:100D10000028F2D096480068F82188432169C9006C
:100D200008439349086016E0914800684008400075
:100D30008F490860FFF7CAFC054606E0FFF7C6FCCE
:100D4000401B022801D9032013E7894800680221CB
:100D500008400028F2D1082120680840082831D135
:100D6000E069002817D08248406A01210843804981
:100D70004862FFF7ABFC054606E0FFF7A7FC401B07
:100D8000022801D90320F4E67948406A022108408C
:100D90000028F2D016E07648406A400840007449C6
:100DA0004862FFF793FC054606E0FFF78FFC401B07
:100DB000022801D90320DCE66D48406A0221084080
:100DC0000028F2D1042120680840042873D10020B3
:100DD00001906748C0698906084000280ED100BF0D
:100DE0006348C06908436249C8610846C06909048C
:100DF0000840009000BF00BF012001905D480068DE
:100E0000FF2101310840002816D15A4800680843E4
:100E100058490860FFF75AFC054606E0FFF756FC04
:100E2000401B642801D90320A3E652480068FF2133
:100E3000013108400028F1D000BFA068012806D188
:100E40004B48006A01210843494908622BE0A06829
:100E500000280CD14648006A400840004449086216
:100E60000846006A04218843414908621BE0A068E3
:100E700005280CD13E48006A042108433C49086219
:100E80000846006A01210843394908620BE03848E6
:100E9000006A40084000364908620846006A04219A
:100EA00088433349086200BFA068002813D0FFF7C9
:100EB0000DFC054608E02BE0FFF708FC401B2E491F
:100EC000884201D9032054E62948006A02210840DB
:100ED0000028F1D011E0FFF7F9FB054607E0FFF726
:100EE000F5FB401B2449884201D9032041E62048F4
:100EF000006A022108400028F1D10198012806D19A
:100F00001B48C0690121090788431949C86100BF0E
:100F1000102120680840102860D1606901282DD177
:100F20001348406B04210843114948630846406B4D
:100F3000012108430E494863FFF7C8FB054606E058
:100F4000FFF7C4FB401B022801D9032011E6084823
:100F5000406B022108400028F2D00548406BF82180
:100F60008843A169C90008430149486336E000008D
:100F70000010024000700040881300006069401DAE
:100F800000280FD15A48406B0421884358494863D0
:100F90000846406BF8218843A169C90008435449B9
:100FA00048631BE05248406B0421084350494863A2
:100FB0000846406B400840004863FFF787FB054642
:100FC00006E0FFF783FB401B022801D90320D0E590
:100FD0004748406B022108400028F2D1206A0028CF
:100FE0004FD0434840680C210840082864D0206A4C
:100FF000022847D13E4800680121090688433C4940
:101000000860FFF763FB054606E0FFF75FFB401B48
:10101000022801D90320ACE53548006801214906C2
:1010200008400028F1D100BF3148C06A0009000122
:10103000E16A08432E49C862616AA06A08432C49E4
:1010400049683D221204914308432949486000BF82
:101050000846006801210906084325490860FFF792
:1010600035FB054606E0FFF731FB401B022801D99E
:1010700003207EE51E48006801214906084000283B
:10108000F1D033E01A480068012109068843184965
:101090000860FFF71BFB054606E0FFF717FB401B48
:1010A000022801D9032064E511480068012149069E
:1010B00008400028F1D119E0206A012800D158E544
:1010C0000B484668C76A012000043040616A8842C4
:1010D0000AD13907090FE06A814205D10F20800447
:1010E0003040A16A884201D0012042E5002040E55D
:1010F0000010024070B504462546681E0949884222
:1011000001D901200CE0681E074948610321081F2E
:1011100000F042FD0020044988610720086100209A
:1011200070BD0000FFFFFF0000E000E07047704767
:1011300010B50446002C01D1012010BD3D20005DFA
:10114000002805D100213C200155204600F00CF874
:1011500002213D200155211D206800F073FB012173
:101160003D2001550020E8E738B504460D492068C8
:10117000884215D100BF0C48C069891508430A4947
:10118000C8610846C06989150840009000BF00BFCB
:10119000002211461320FFF717FB1320FFF702FB75
:1011A00038BD00000020004000100240704710B51C
:1011B00004462068006902210840400800281CD02D
:1011C0002068C06808404008002816D0481F2168E1
:1011D000086101202077206880698007800F00283F
:1011E00003D02046FFF7E2FF05E0204600F0F2F8CA
:1011F000204600F096F9002020772068006904213D
:101200000840800800281DD02068C0680840800879
:10121000002817D0C8432168086102202077206881
:101220008069032109020840002803D02046FFF707
:10123000BDFF05E0204600F0CDF8204600F071F932
:10124000002020772068006908210840C008002895
:101250001CD02068C0680840C008002816D0C843C9
:1012600021680861042020772068C0698007800F0A
:10127000002803D02046FFF799FF05E0204600F044
:10128000A9F8204600F04DF9002020772068006979
:1012900010210840000900281DD02068C0680840BF
:1012A0000009002817D0C84321680861082020776A
:1012B0002068C069032109020840002803D02046A5
:1012C000FFF774FF05E0204600F084F8204600F0A8
:1012D00028F90020207720680069C007C00F01218D
:1012E0004840484000280CD02068C068084048406A
:1012F0004840002805D0C81E21680861204600F03B
:10130000A1F92068006980210840C00900280BD09D
:101310002068C0680840C009002805D0C84321687B
:1013200008612046FFF702FF20680069402108405D
:10133000800900280BD02068C06808408009002878
:1013400005D0C84321680861204600F07CF9206878
:10135000006920210840400900280BD02068C0689F
:1013600008404009002805D0C8432168086120468C
:10137000FFF7DDFE10BD000010B586B00446142155
:1013800001A8FEF7A2FF1149206888421CD100BFC6
:101390000F484069090108430D4948610846406902
:1013A000012149040840009000BF00BF10200190B7
:1013B000022002900020039004900420059001A9CF
:1013C0000920C006FFF77EF806B010BD00200040DF
:1013D00000100240704770B504460D46164600BF27
:1013E0003C20005D012801D1022070BD01213C207C
:1013F000015500BF02213D200155002E06D0042ECC
:101400001BD0082E33D00C2E62D147E0294620682D
:1014100000F072FA20688069082108432168886119
:101420002068806904218843216888612068806978
:1014300029690843216888614BE02946206800F04B
:10144000A9FA206880690121C902084321688861DE
:1014500020688069012189028843216888612068A9
:1014600080692969090208432168886131E02946B9
:10147000206800F0E7FA2068C06908210843216865
:10148000C8612068C069042188432168C861206858
:10149000C069296908432168C8611AE029462068A3
:1014A00000F026FB2068C0690121C90208432168B9
:1014B000C8612068C0690121890288432168C86128
:1014C0002068C0692969090208432168C86100E0F1
:1014D00000BF00BF01213D20015500BF00213C207D
:1014E000015500BF002080E710B50446002C01D153
:1014F000012010BD3D20005D002805D100213C20C9
:101500000155204600F00CF802213D200155211D17
:10151000206800F097F901213D2001550020E8E7FF
:101520007047704770B504460E4601223146206868
:1015300000F0D0F912492068884207D0114920688C
:10154000884203D010492068884201D1012000E080
:101550000020002806D02068406C0121C903084300
:10156000216848642068806845076D0F062D05D006
:10157000206800680121084321680860002070BDD0
:10158000002C0140004401400048014070B5044671
:101590000D46002D06D0042D0BD0082D10D00C2D9B
:1015A0001CD114E02068C068022108432168C8608B
:1015B00015E02068C068042108432168C8600EE077
:1015C0002068C068082108432168C86007E02068D7
:1015D000C068102108432168C86000E000BF00BF58
:1015E00001222946206800F075F9134920688842D5
:1015F00007D012492068884203D0114920688842E8
:1016000001D1012000E00020002806D02068406CB5
:101610000121C9030843216848642068806846079F
:10162000760F062E05D02068006801210843216846
:101630000860002070BD0000002C01400044014003
:10164000004801407047704700BFFEE700B587B013
:10165000142102A8FEF739FE00BF28484069012185
:101660004904084325494861084640690121490465
:101670000840019000BF00BF00BF204840694900FA
:1016800008431E4948610846406901218904084011
:10169000019000BF00BF002202211948FFF70FF898
:1016A000E020029000200390049002A90920C006C7
:1016B000FEF708FF03204002029001200390022061
:1016C000049002A90920C006FEF7FCFE0220029049
:1016D000012003900220049002A90948FEF7F2FEBF
:1016E0000F200290012003900220049002A90920FB
:1016F000C006FEF7E7FE07B000BD00000010024084
:101700000004004800B587B01C216846FEF7DDFDE7
:10171000164817490860174848600021144881603E
:101720001549C160002101618161FFF701FD0028B9
:1017300001D0FEF7AEFE0E48FFF7D6FE002801D01E
:10174000FEF7A7FE60200090002001900290049018
:10175000002269460648FFF73EFE002801D0FEF74A
:1017600098FE0348FFF708FE07B000BD00200040C8
:10177000600000203F1F00000F27000000BFFEE7B1
:101780007047704710B5FEF7A7FF20220921C90650
:10179000074800F065FB80220921C906054800F0D2
:1017A0005FFB40220921C906034800F059FB10BD28
:1017B00000000020040000200800002000B595B0C3
:1017C000302109A8FEF781FD0020059006900790C2
:1017D000089001900290039004900220099001204B
:1017E0000C9010200D900020119009A8FFF7BCF973
:1017F000002801D0FEF74DFE07200590002006903E
:1018000007900890002105A8FFF790F8002801D064
:10181000FEF73FFE2120019000200390049001A8D4
:10182000FEF7DCFF002801D0FEF733FE15B000BD47
:101830007047000010B50248FFF7B9FC10BD00006A
:101840006000002010B502681D4B984202D01D4B6D
:10185000984205D170241346A3431A464B681A4395
:10186000174B98420BD0174B984208D0164B984212
:1018700005D0164B984202D0154B984206D103244E
:1018800024021346A3431A46CB681A438024134606
:10189000A3434C6923431A4602608B68C3620B68FA
:1018A0008362074B984205D0084B984202D0084B00
:1018B000984201D10B6903630123436110BD00000D
:1018C000002C014000040040002000400044014082
:1018D0000048014070B5CD06ED0E0124AC40234612
:1018E000046A9C430462046ACE06F60E1546B540AF
:1018F0002C43046270BD000070B5056A6D086D0070
:101900000562026A4368846970262546B5432C4601
:10191000A408A4000D682C4302261546B5432A46A8
:101920008D682A43184DA84200D107E0174DA84200
:1019300000D103E0164DA8420AD100BF0826154683
:10194000B5432A46CD682A4304261546B5432A46A0
:101950000D4DA84205D00D4DA84202D00C4DA84215
:101960000CD1FF2601361D46B5432B4676001D4699
:10197000B5432B464D692B438D692B4343608461EE
:101980004D684563026270BD002C01400044014077
:101990000048014070B5056A1026B5430562026A29
:1019A00043688469072636032546B5432C4603263B
:1019B00036022546B5432C460D682D022C432026C1
:1019C0001546B5432A468D682D012A431A4DA84273
:1019D00000D107E0194DA84200D100BF184DA84220
:1019E0000BD10AE080261546B5432A46CD682D0165
:1019F0002A4340261546B5432A460F4DA84205D036
:101A00000E4DA84202D00E4DA8420ED10126B602BC
:101A10001D46B5432B4676001D46B5432B464D6902
:101A2000AD002B438D69AD002B43436084614D684D
:101A30008563026270BD0000002C0140004401403B
:101A40000048014070B5056AFF260136B5430562BE
:101A5000026A4368C46970262546B5432C46A4082B
:101A6000A4000D682C43012676021546B5432A468C
:101A70008D682D022A431B4DA84200D107E01A4D64
:101A8000A84200D100BF194DA8420CD10BE001269D
:101A9000F6021546B5432A46CD682D022A43761034
:101AA0001546B5432A460F4DA84205D00E4DA84213
:101AB00002D00E4DA8420ED1012636031D46B54375
:101AC0002B4676001D46B5432B464D692D012B4311
:101AD0008D692D012B434360C4614D68C56302626B
:101AE00070BD0000002C014000440140004801404E
:101AF00070B5056A01263603B5430562046A43687A
:101B0000C269072636031546B5432A460326360220
:101B10001546B5432A460D682D022A430126760351
:101B20002546B5432C468D682D032C430B4DA8420A
:101B300005D00B4DA84202D00A4DA84207D101267C
:101B4000B6031D46B5432B464D69AD012B4343609B
:101B5000C2614D680564046270BD0000002C014044
:101B60000044014000480140F8B582B28BB2040C39
:101B70000D0C10465843002126465E43370C3604B0
:101B80008019794116466E43370C36048019794125
:101B900026466E438919F8BD10B5002819DB1A4A8C
:101BA00003231B02D21883089B00D2588307DC0E44
:101BB000FF23A3409A438B071B0E8407E40EA34028
:101BC0001A43114B032424021B198408A4001A5140
:101BD00018E00E4A03071B0F083B9B089B00D258D6
:101BE0008307DC0EFF23A3409A438B071B0E840759
:101BF000E40EA3401A43054B0407240F083CA40835
:101C0000A4001A5110BD000000E100E01CED00E04E
:101C100010B50446002202211648FEF750FD0022AE
:101C2000012189020920C006FEF749FD0022012199
:101C300049020920C006FEF742FD002C04D0012C09
:101C400008D0022C14D10CE0012202210948FEF731
:101C500036FD0DE0012291020920C006FEF72FFD9E
:101C600006E0012251020920C006FEF728FD00BF50
:101C700000BF10BD0004004801460868002801D1DB
:101C8000012070470020FCE701460868401C00283E
:101C900001D1012070470020FCE700008AB000203D
:101CA00009900F200890079000210691059104915A
:101CB000039102910191002700240026002000904A
:101CC000FEF716FDFFF77AFDFFF7C0FCFFF71AFDE0
:101CD00000215348FFF726FC002801D0FEF7D9FB6E
:101CE00000214F48FFF752FC002801D0FEF7D1FB3E
:101CF00095E04C48FFF7C0FF002813D06846007BF2
:101D000000280FD1002C01DD601EC4B204AB05AA6F
:101D100006A9204600F096F8012003900126002035
:101D2000009006E03F48FFF7AFFF002801D00020F9
:101D300003903D48FFF7A0FF002813D06846007AC3
:101D400000280FD10A2C01DA601CC4B204AB05AA2A
:101D500006A9204600F076F8012002900126002016
:101D6000009006E03048FFF78FFF002801D00020E8
:101D700002902E48FFF780FF002817D068460079B0
:101D8000002813D12746B900294A50582449096828
:101D900048630122019200266946097E099169463D
:101DA000097D08916946097C079106E01F48FFF705
:101DB0006BFF002801D0002001900098322805D246
:101DC000002E03D00098401C00900BE0002E09D09C
:101DD0003C4600200090002609980690089905913D
:101DE00007980490002E16D0002500BF05E00F22B2
:101DF0001146104600F066F86D1C0A2DF7D3002539
:101E000006E06846027E017D007C00F05BF86D1CF8
:101E10000A2DF6D303E007A807C800F053F868E7D7
:101E200060000020040000200000002008000020C6
:101E30000C00002070B504460D4629462046FEF7EA
:101E400035FC70BD10B500240C70034C245C14707C
:101E5000024C245C1C7010BD3800002043000020A0
:101E600070B504460D461646206840002060314695
:101E70002846FFF7DFFF21680843206070BD0B286C
:101E800001DA002801DC00280CD10921C906896A81
:101E90000F2211430922D20691621146896901433A
:101EA00091610EE00921C906896A0F2211430922B6
:101EB000D2069162114689690F2211430922D20686
:101EC0009161704770B506460C4615462846FFF7E7
:101ED000D6FF0120FFF79CFE0120FEF7DDFA204629
:101EE000FFF7CDFF0220FFF793FE0120FEF7D4FAA3
:101EF0003046FFF7C4FF0020FFF78AFE0120FEF7FF
:101F0000CBFA70BD000000000000000001020304D5
:101F10000607080900000000010203043C1F000836
:101F20000000002060000000F40000089C1F000872
:101F300060000020A006000010010008FFFFFFFF66
:101F4000FFFFFFFFFFFFFFFF00000000E8030000AE
:101F5000D0070000B80B0000A00F0000881300009D
:101F600070170000581B0000401F000028230000CD
:101F7000102700000F010203040506070809000FDF
:101F80000F0F0F0F0F0F0F0F0F01000000127A003D
:0C1F900000000000040000000100000040
:040000050800015599
:00000001FF
